{
  "_format": "hh-sol-artifact-1",
  "contractName": "Kpay",
  "sourceName": "contracts/Kpay.sol",
  "abi": [
    {
      "inputs": [
        {
          "internalType": "uint256",
          "name": "initialSupply",
          "type": "uint256"
        }
      ],
      "stateMutability": "nonpayable",
      "type": "constructor"
    },
    {
      "inputs": [
        {
          "internalType": "address",
          "name": "spender",
          "type": "address"
        },
        {
          "internalType": "uint256",
          "name": "allowance",
          "type": "uint256"
        },
        {
          "internalType": "uint256",
          "name": "needed",
          "type": "uint256"
        }
      ],
      "name": "ERC20InsufficientAllowance",
      "type": "error"
    },
    {
      "inputs": [
        {
          "internalType": "address",
          "name": "sender",
          "type": "address"
        },
        {
          "internalType": "uint256",
          "name": "balance",
          "type": "uint256"
        },
        {
          "internalType": "uint256",
          "name": "needed",
          "type": "uint256"
        }
      ],
      "name": "ERC20InsufficientBalance",
      "type": "error"
    },
    {
      "inputs": [
        {
          "internalType": "address",
          "name": "approver",
          "type": "address"
        }
      ],
      "name": "ERC20InvalidApprover",
      "type": "error"
    },
    {
      "inputs": [
        {
          "internalType": "address",
          "name": "receiver",
          "type": "address"
        }
      ],
      "name": "ERC20InvalidReceiver",
      "type": "error"
    },
    {
      "inputs": [
        {
          "internalType": "address",
          "name": "sender",
          "type": "address"
        }
      ],
      "name": "ERC20InvalidSender",
      "type": "error"
    },
    {
      "inputs": [
        {
          "internalType": "address",
          "name": "spender",
          "type": "address"
        }
      ],
      "name": "ERC20InvalidSpender",
      "type": "error"
    },
    {
      "inputs": [],
      "name": "EnforcedPause",
      "type": "error"
    },
    {
      "inputs": [],
      "name": "ExpectedPause",
      "type": "error"
    },
    {
      "inputs": [
        {
          "internalType": "address",
          "name": "owner",
          "type": "address"
        }
      ],
      "name": "OwnableInvalidOwner",
      "type": "error"
    },
    {
      "inputs": [
        {
          "internalType": "address",
          "name": "account",
          "type": "address"
        }
      ],
      "name": "OwnableUnauthorizedAccount",
      "type": "error"
    },
    {
      "anonymous": false,
      "inputs": [
        {
          "indexed": true,
          "internalType": "address",
          "name": "owner",
          "type": "address"
        },
        {
          "indexed": true,
          "internalType": "address",
          "name": "spender",
          "type": "address"
        },
        {
          "indexed": false,
          "internalType": "uint256",
          "name": "value",
          "type": "uint256"
        }
      ],
      "name": "Approval",
      "type": "event"
    },
    {
      "anonymous": false,
      "inputs": [
        {
          "indexed": true,
          "internalType": "address",
          "name": "previousOwner",
          "type": "address"
        },
        {
          "indexed": true,
          "internalType": "address",
          "name": "newOwner",
          "type": "address"
        }
      ],
      "name": "OwnershipTransferred",
      "type": "event"
    },
    {
      "anonymous": false,
      "inputs": [
        {
          "indexed": false,
          "internalType": "address",
          "name": "account",
          "type": "address"
        }
      ],
      "name": "Paused",
      "type": "event"
    },
    {
      "anonymous": false,
      "inputs": [
        {
          "indexed": true,
          "internalType": "address",
          "name": "from",
          "type": "address"
        },
        {
          "indexed": false,
          "internalType": "uint256",
          "name": "amount",
          "type": "uint256"
        }
      ],
      "name": "TokensBurned",
      "type": "event"
    },
    {
      "anonymous": false,
      "inputs": [
        {
          "indexed": true,
          "internalType": "address",
          "name": "to",
          "type": "address"
        },
        {
          "indexed": false,
          "internalType": "uint256",
          "name": "amount",
          "type": "uint256"
        }
      ],
      "name": "TokensMinted",
      "type": "event"
    },
    {
      "anonymous": false,
      "inputs": [
        {
          "indexed": true,
          "internalType": "address",
          "name": "from",
          "type": "address"
        },
        {
          "indexed": true,
          "internalType": "address",
          "name": "to",
          "type": "address"
        },
        {
          "indexed": false,
          "internalType": "uint256",
          "name": "value",
          "type": "uint256"
        }
      ],
      "name": "Transfer",
      "type": "event"
    },
    {
      "anonymous": false,
      "inputs": [
        {
          "indexed": false,
          "internalType": "address",
          "name": "account",
          "type": "address"
        }
      ],
      "name": "Unpaused",
      "type": "event"
    },
    {
      "inputs": [],
      "name": "MAX_SUPPLY",
      "outputs": [
        {
          "internalType": "uint256",
          "name": "",
          "type": "uint256"
        }
      ],
      "stateMutability": "view",
      "type": "function"
    },
    {
      "inputs": [
        {
          "internalType": "address",
          "name": "owner",
          "type": "address"
        },
        {
          "internalType": "address",
          "name": "spender",
          "type": "address"
        }
      ],
      "name": "allowance",
      "outputs": [
        {
          "internalType": "uint256",
          "name": "",
          "type": "uint256"
        }
      ],
      "stateMutability": "view",
      "type": "function"
    },
    {
      "inputs": [
        {
          "internalType": "address",
          "name": "spender",
          "type": "address"
        },
        {
          "internalType": "uint256",
          "name": "value",
          "type": "uint256"
        }
      ],
      "name": "approve",
      "outputs": [
        {
          "internalType": "bool",
          "name": "",
          "type": "bool"
        }
      ],
      "stateMutability": "nonpayable",
      "type": "function"
    },
    {
      "inputs": [
        {
          "internalType": "address",
          "name": "account",
          "type": "address"
        }
      ],
      "name": "balanceOf",
      "outputs": [
        {
          "internalType": "uint256",
          "name": "",
          "type": "uint256"
        }
      ],
      "stateMutability": "view",
      "type": "function"
    },
    {
      "inputs": [
        {
          "internalType": "uint256",
          "name": "amount",
          "type": "uint256"
        }
      ],
      "name": "burn",
      "outputs": [],
      "stateMutability": "nonpayable",
      "type": "function"
    },
    {
      "inputs": [],
      "name": "decimals",
      "outputs": [
        {
          "internalType": "uint8",
          "name": "",
          "type": "uint8"
        }
      ],
      "stateMutability": "view",
      "type": "function"
    },
    {
      "inputs": [
        {
          "internalType": "address",
          "name": "to",
          "type": "address"
        },
        {
          "internalType": "uint256",
          "name": "amount",
          "type": "uint256"
        }
      ],
      "name": "mint",
      "outputs": [],
      "stateMutability": "nonpayable",
      "type": "function"
    },
    {
      "inputs": [],
      "name": "name",
      "outputs": [
        {
          "internalType": "string",
          "name": "",
          "type": "string"
        }
      ],
      "stateMutability": "view",
      "type": "function"
    },
    {
      "inputs": [],
      "name": "owner",
      "outputs": [
        {
          "internalType": "address",
          "name": "",
          "type": "address"
        }
      ],
      "stateMutability": "view",
      "type": "function"
    },
    {
      "inputs": [],
      "name": "paused",
      "outputs": [
        {
          "internalType": "bool",
          "name": "",
          "type": "bool"
        }
      ],
      "stateMutability": "view",
      "type": "function"
    },
    {
      "inputs": [],
      "name": "renounceOwnership",
      "outputs": [],
      "stateMutability": "nonpayable",
      "type": "function"
    },
    {
      "inputs": [],
      "name": "symbol",
      "outputs": [
        {
          "internalType": "string",
          "name": "",
          "type": "string"
        }
      ],
      "stateMutability": "view",
      "type": "function"
    },
    {
      "inputs": [],
      "name": "totalSupply",
      "outputs": [
        {
          "internalType": "uint256",
          "name": "",
          "type": "uint256"
        }
      ],
      "stateMutability": "view",
      "type": "function"
    },
    {
      "inputs": [
        {
          "internalType": "address",
          "name": "to",
          "type": "address"
        },
        {
          "internalType": "uint256",
          "name": "amount",
          "type": "uint256"
        }
      ],
      "name": "transfer",
      "outputs": [
        {
          "internalType": "bool",
          "name": "",
          "type": "bool"
        }
      ],
      "stateMutability": "nonpayable",
      "type": "function"
    },
    {
      "inputs": [
        {
          "internalType": "address",
          "name": "from",
          "type": "address"
        },
        {
          "internalType": "address",
          "name": "to",
          "type": "address"
        },
        {
          "internalType": "uint256",
          "name": "amount",
          "type": "uint256"
        }
      ],
      "name": "transferFrom",
      "outputs": [
        {
          "internalType": "bool",
          "name": "",
          "type": "bool"
        }
      ],
      "stateMutability": "nonpayable",
      "type": "function"
    },
    {
      "inputs": [
        {
          "internalType": "address",
          "name": "newOwner",
          "type": "address"
        }
      ],
      "name": "transferOwnership",
      "outputs": [],
      "stateMutability": "nonpayable",
      "type": "function"
    },
    {
      "inputs": [],
      "name": "withdraw",
      "outputs": [],
      "stateMutability": "nonpayable",
      "type": "function"
    }
  ],
  "bytecode": "0x60806040523480156200001157600080fd5b5060405162000fed38038062000fed83398101604081905262000034916200030b565b33604051806040016040528060048152602001634b70617960e01b815250604051806040016040528060048152602001634b50415960e01b8152508160039081620000809190620003ca565b5060046200008f8282620003ca565b5050506001600160a01b038116620000c257604051631e4fbdf760e01b8152600060048201526024015b60405180910390fd5b620000cd8162000148565b506a52b7d2dcc80cd2e4000000811115620001355760405162461bcd60e51b815260206004820152602160248201527f496e697469616c20737570706c792065786365656473206d617820737570706c6044820152607960f81b6064820152608401620000b9565b6200014133826200019a565b50620004be565b600580546001600160a01b038381166001600160a01b0319831681179093556040519116919082907f8be0079c531659141344cd1fd0a4f28419497f9722a3daafe3b4186f6b6457e090600090a35050565b6001600160a01b038216620001c65760405163ec442f0560e01b815260006004820152602401620000b9565b620001d460008383620001d8565b5050565b6001600160a01b03831662000207578060026000828254620001fb919062000496565b909155506200027b9050565b6001600160a01b038316600090815260208190526040902054818110156200025c5760405163391434e360e21b81526001600160a01b03851660048201526024810182905260448101839052606401620000b9565b6001600160a01b03841660009081526020819052604090209082900390555b6001600160a01b0382166200029957600280548290039055620002b8565b6001600160a01b03821660009081526020819052604090208054820190555b816001600160a01b0316836001600160a01b03167fddf252ad1be2c89b69c2b068fc378daa952ba7f163c4a11628f55a4df523b3ef83604051620002fe91815260200190565b60405180910390a3505050565b6000602082840312156200031e57600080fd5b5051919050565b634e487b7160e01b600052604160045260246000fd5b600181811c908216806200035057607f821691505b6020821081036200037157634e487b7160e01b600052602260045260246000fd5b50919050565b601f821115620003c557600081815260208120601f850160051c81016020861015620003a05750805b601f850160051c820191505b81811015620003c157828155600101620003ac565b5050505b505050565b81516001600160401b03811115620003e657620003e662000325565b620003fe81620003f784546200033b565b8462000377565b602080601f8311600181146200043657600084156200041d5750858301515b600019600386901b1c1916600185901b178555620003c1565b600085815260208120601f198616915b82811015620004675788860151825594840194600190910190840162000446565b5085821015620004865787850151600019600388901b60f8161c191681555b5050505050600190811b01905550565b80820180821115620004b857634e487b7160e01b600052601160045260246000fd5b92915050565b610b1f80620004ce6000396000f3fe608060405234801561001057600080fd5b506004361061010b5760003560e01c806342966c68116100a25780638da5cb5b116100715780638da5cb5b1461020a57806395d89b4114610225578063a9059cbb1461022d578063dd62ed3e14610240578063f2fde38b1461027957600080fd5b806342966c68146101b45780635c975abb146101c757806370a08231146101d9578063715018a61461020257600080fd5b8063313ce567116100de578063313ce5671461017657806332cb6b0c146101855780633ccfd60b1461019757806340c10f19146101a157600080fd5b806306fdde0314610110578063095ea7b31461012e57806318160ddd1461015157806323b872dd14610163575b600080fd5b61011861028c565b6040516101259190610957565b60405180910390f35b61014161013c3660046109c1565b61031e565b6040519015158152602001610125565b6002545b604051908152602001610125565b6101416101713660046109eb565b610338565b60405160128152602001610125565b6101556a52b7d2dcc80cd2e400000081565b61019f610355565b005b61019f6101af3660046109c1565b610399565b61019f6101c2366004610a27565b610462565b600554600160a01b900460ff16610141565b6101556101e7366004610a40565b6001600160a01b031660009081526020819052604090205490565b61019f6104ac565b6005546040516001600160a01b039091168152602001610125565b6101186104c0565b61014161023b3660046109c1565b6104cf565b61015561024e366004610a5b565b6001600160a01b03918216600090815260016020908152604080832093909416825291909152205490565b61019f610287366004610a40565b6104ea565b60606003805461029b90610a8e565b80601f01602080910402602001604051908101604052809291908181526020018280546102c790610a8e565b80156103145780601f106102e957610100808354040283529160200191610314565b820191906000526020600020905b8154815290600101906020018083116102f757829003601f168201915b5050505050905090565b60003361032c818585610525565b60019150505b92915050565b6000610342610537565b61034d848484610562565b949350505050565b61035d610586565b6005546040516001600160a01b03909116904780156108fc02916000818181858888f19350505050158015610396573d6000803e3d6000fd5b50565b6103a1610586565b6103a9610537565b6a52b7d2dcc80cd2e4000000816103bf60025490565b6103c99190610ac8565b11156104115760405162461bcd60e51b815260206004820152601260248201527145786365656473206d617820737570706c7960701b60448201526064015b60405180910390fd5b61041b82826105b3565b816001600160a01b03167f3f2c9d57c068687834f0de942a9babb9e5acab57d516d3480a3c16ee165a42738260405161045691815260200190565b60405180910390a25050565b61046a610537565b61047433826105ed565b60405181815233907ffd38818f5291bf0bb3a2a48aadc06ba8757865d1dabd804585338aab3009dcb69060200160405180910390a250565b6104b4610586565b6104be6000610623565b565b60606004805461029b90610a8e565b60006104d9610537565b6104e38383610675565b9392505050565b6104f2610586565b6001600160a01b03811661051c57604051631e4fbdf760e01b815260006004820152602401610408565b61039681610623565b6105328383836001610683565b505050565b600554600160a01b900460ff16156104be5760405163d93c066560e01b815260040160405180910390fd5b600033610570858285610759565b61057b8585856107d2565b506001949350505050565b6005546001600160a01b031633146104be5760405163118cdaa760e01b8152336004820152602401610408565b6001600160a01b0382166105dd5760405163ec442f0560e01b815260006004820152602401610408565b6105e96000838361082d565b5050565b6001600160a01b03821661061757604051634b637e8f60e11b815260006004820152602401610408565b6105e98260008361082d565b600580546001600160a01b038381166001600160a01b0319831681179093556040519116919082907f8be0079c531659141344cd1fd0a4f28419497f9722a3daafe3b4186f6b6457e090600090a35050565b60003361032c8185856107d2565b6001600160a01b0384166106ad5760405163e602df0560e01b815260006004820152602401610408565b6001600160a01b0383166106d757604051634a1406b160e11b815260006004820152602401610408565b6001600160a01b038085166000908152600160209081526040808320938716835292905220829055801561075357826001600160a01b0316846001600160a01b03167f8c5be1e5ebec7d5bd14f71427d1e84f3dd0314c0f7b2291e5b200ac8c7c3b9258460405161074a91815260200190565b60405180910390a35b50505050565b6001600160a01b0383811660009081526001602090815260408083209386168352929052205460001981101561075357818110156107c357604051637dc7a0d960e11b81526001600160a01b03841660048201526024810182905260448101839052606401610408565b61075384848484036000610683565b6001600160a01b0383166107fc57604051634b637e8f60e11b815260006004820152602401610408565b6001600160a01b0382166108265760405163ec442f0560e01b815260006004820152602401610408565b6105328383835b6001600160a01b03831661085857806002600082825461084d9190610ac8565b909155506108ca9050565b6001600160a01b038316600090815260208190526040902054818110156108ab5760405163391434e360e21b81526001600160a01b03851660048201526024810182905260448101839052606401610408565b6001600160a01b03841660009081526020819052604090209082900390555b6001600160a01b0382166108e657600280548290039055610905565b6001600160a01b03821660009081526020819052604090208054820190555b816001600160a01b0316836001600160a01b03167fddf252ad1be2c89b69c2b068fc378daa952ba7f163c4a11628f55a4df523b3ef8360405161094a91815260200190565b60405180910390a3505050565b600060208083528351808285015260005b8181101561098457858101830151858201604001528201610968565b506000604082860101526040601f19601f8301168501019250505092915050565b80356001600160a01b03811681146109bc57600080fd5b919050565b600080604083850312156109d457600080fd5b6109dd836109a5565b946020939093013593505050565b600080600060608486031215610a0057600080fd5b610a09846109a5565b9250610a17602085016109a5565b9150604084013590509250925092565b600060208284031215610a3957600080fd5b5035919050565b600060208284031215610a5257600080fd5b6104e3826109a5565b60008060408385031215610a6e57600080fd5b610a77836109a5565b9150610a85602084016109a5565b90509250929050565b600181811c90821680610aa257607f821691505b602082108103610ac257634e487b7160e01b600052602260045260246000fd5b50919050565b8082018082111561033257634e487b7160e01b600052601160045260246000fdfea2646970667358221220cccfa5a90c39833b1837a12cdccfa32b7674d42c6d99f4dae37cb25076d4307a64736f6c63430008140033",
  "linkReferences": {},
  "deployedLinkReferences": {}
}